{"abi":[{"type":"constructor","inputs":[{"name":"admin","type":"address","internalType":"address"}],"stateMutability":"nonpayable"},{"type":"function","name":"DEFAULT_ADMIN_ROLE","inputs":[],"outputs":[{"name":"","type":"bytes32","internalType":"bytes32"}],"stateMutability":"view"},{"type":"function","name":"FACTORY_ADMIN_ROLE","inputs":[],"outputs":[{"name":"","type":"bytes32","internalType":"bytes32"}],"stateMutability":"view"},{"type":"function","name":"computeAddress","inputs":[{"name":"bytecode","type":"bytes","internalType":"bytes"},{"name":"salt","type":"bytes32","internalType":"bytes32"}],"outputs":[{"name":"predicted","type":"address","internalType":"address"}],"stateMutability":"view"},{"type":"function","name":"deployPolicyTypeDeterministic","inputs":[{"name":"bytecode","type":"bytes","internalType":"bytes"},{"name":"salt","type":"bytes32","internalType":"bytes32"}],"outputs":[{"name":"deployed","type":"address","internalType":"address"}],"stateMutability":"nonpayable"},{"type":"function","name":"deployPolicyTypeVanilla","inputs":[{"name":"bytecode","type":"bytes","internalType":"bytes"}],"outputs":[{"name":"deployed","type":"address","internalType":"address"}],"stateMutability":"nonpayable"},{"type":"function","name":"getDeployedPolicies","inputs":[],"outputs":[{"name":"","type":"address[]","internalType":"address[]"}],"stateMutability":"view"},{"type":"function","name":"getRoleAdmin","inputs":[{"name":"role","type":"bytes32","internalType":"bytes32"}],"outputs":[{"name":"","type":"bytes32","internalType":"bytes32"}],"stateMutability":"view"},{"type":"function","name":"grantRole","inputs":[{"name":"role","type":"bytes32","internalType":"bytes32"},{"name":"account","type":"address","internalType":"address"}],"outputs":[],"stateMutability":"nonpayable"},{"type":"function","name":"hasRole","inputs":[{"name":"role","type":"bytes32","internalType":"bytes32"},{"name":"account","type":"address","internalType":"address"}],"outputs":[{"name":"","type":"bool","internalType":"bool"}],"stateMutability":"view"},{"type":"function","name":"renounceRole","inputs":[{"name":"role","type":"bytes32","internalType":"bytes32"},{"name":"callerConfirmation","type":"address","internalType":"address"}],"outputs":[],"stateMutability":"nonpayable"},{"type":"function","name":"revokeRole","inputs":[{"name":"role","type":"bytes32","internalType":"bytes32"},{"name":"account","type":"address","internalType":"address"}],"outputs":[],"stateMutability":"nonpayable"},{"type":"function","name":"supportsInterface","inputs":[{"name":"interfaceId","type":"bytes4","internalType":"bytes4"}],"outputs":[{"name":"","type":"bool","internalType":"bool"}],"stateMutability":"view"},{"type":"event","name":"PolicyTypeDeployed","inputs":[{"name":"deployed","type":"address","indexed":true,"internalType":"address"},{"name":"salt","type":"bytes32","indexed":true,"internalType":"bytes32"}],"anonymous":false},{"type":"event","name":"RoleAdminChanged","inputs":[{"name":"role","type":"bytes32","indexed":true,"internalType":"bytes32"},{"name":"previousAdminRole","type":"bytes32","indexed":true,"internalType":"bytes32"},{"name":"newAdminRole","type":"bytes32","indexed":true,"internalType":"bytes32"}],"anonymous":false},{"type":"event","name":"RoleGranted","inputs":[{"name":"role","type":"bytes32","indexed":true,"internalType":"bytes32"},{"name":"account","type":"address","indexed":true,"internalType":"address"},{"name":"sender","type":"address","indexed":true,"internalType":"address"}],"anonymous":false},{"type":"event","name":"RoleRevoked","inputs":[{"name":"role","type":"bytes32","indexed":true,"internalType":"bytes32"},{"name":"account","type":"address","indexed":true,"internalType":"address"},{"name":"sender","type":"address","indexed":true,"internalType":"address"}],"anonymous":false},{"type":"error","name":"AccessControlBadConfirmation","inputs":[]},{"type":"error","name":"AccessControlUnauthorizedAccount","inputs":[{"name":"account","type":"address","internalType":"address"},{"name":"neededRole","type":"bytes32","internalType":"bytes32"}]},{"type":"error","name":"DeploymentFailed","inputs":[]},{"type":"error","name":"EmptyBytecode","inputs":[]},{"type":"error","name":"ReentrancyGuardReentrantCall","inputs":[]},{"type":"error","name":"SaltAlreadyUsed","inputs":[{"name":"salt","type":"bytes32","internalType":"bytes32"}]}],"bytecode":{"object":"0x608060405234801561000f575f80fd5b50604051610b3e380380610b3e83398101604081905261002e91610137565b60017f9b779b17422d0df92223018b32b4d1fa46e071723d6817e2486d003becc55f005561005c5f8261008e565b506100877fbd5d72ac35ae1e83aa0625c57eddda63fbb064a87fca99dfdd7ce027384ae2828261008e565b5050610164565b5f828152602081815260408083206001600160a01b038516845290915281205460ff1661012e575f838152602081815260408083206001600160a01b03861684529091529020805460ff191660011790556100e63390565b6001600160a01b0316826001600160a01b0316847f2f8788117e7eff1d82e926ec794901d17c78024a50270940304540a733656f0d60405160405180910390a4506001610131565b505f5b92915050565b5f60208284031215610147575f80fd5b81516001600160a01b038116811461015d575f80fd5b9392505050565b6109cd806101715f395ff3fe608060405234801561000f575f80fd5b50600436106100b1575f3560e01c806336568abe1161006e57806336568abe146101895780633e4b9f7a1461019c57806391d1485414610206578063a217fddf14610219578063d547741f14610220578063fbaf125314610233575f80fd5b806301ffc9a7146100b55780630b3ce015146100dd5780631d20ea5b146100f2578063248a9ca31461011d5780632f2ff15d1461014d5780633360cf5e14610162575b5f80fd5b6100c86100c3366004610794565b610246565b60405190151581526020015b60405180910390f35b6100e561027c565b6040516100d491906107c2565b6101056101003660046108ab565b6102dc565b6040516001600160a01b0390911681526020016100d4565b61013f61012b3660046108ed565b5f9081526020819052604090206001015490565b6040519081526020016100d4565b61016061015b366004610904565b610444565b005b61013f7fbd5d72ac35ae1e83aa0625c57eddda63fbb064a87fca99dfdd7ce027384ae28281565b610160610197366004610904565b61046e565b6101056101aa3660046108ab565b8151602092830120604080516001600160f81b0319818601523060601b6bffffffffffffffffffffffff191660218201526035810193909352605580840192909252805180840390920182526075909201909152805191012090565b6100c8610214366004610904565b6104a6565b61013f5f81565b61016061022e366004610904565b6104ce565b61010561024136600461093d565b6104f2565b5f6001600160e01b03198216637965db0b60e01b148061027657506301ffc9a760e01b6001600160e01b03198316145b92915050565b606060018054806020026020016040519081016040528092919081815260200182805480156102d257602002820191905f5260205f20905b81546001600160a01b031681526001909101906020018083116102b4575b5050505050905090565b5f7fbd5d72ac35ae1e83aa0625c57eddda63fbb064a87fca99dfdd7ce027384ae28261030781610606565b61030f610613565b83515f03610330576040516321744a5960e01b815260040160405180910390fd5b5f8381526002602052604090205460ff1615610367576040516345d74a5360e11b8152600481018490526024015b60405180910390fd5b5f8381526002602090815260408220805460ff19166001179055855185929091870190f591506001600160a01b0382166103b457604051633011642560e01b815260040160405180910390fd5b6001805480820182555f9182527fb10e2d527612073b26eecdfd717e6a320cf44b4afac2b0732d9fcbe2b7fa0cf60180546001600160a01b0319166001600160a01b03851690811790915560405185927fa39a75e96d9b151e4b5f552a67faebb63c68019bf569b093b0843c90de61a60791a361043d60015f8051602061097883398151915255565b5092915050565b5f8281526020819052604090206001015461045e81610606565b610468838361062e565b50505050565b6001600160a01b03811633146104975760405163334bd91960e11b815260040160405180910390fd5b6104a182826106bd565b505050565b5f918252602082815260408084206001600160a01b0393909316845291905290205460ff1690565b5f828152602081905260409020600101546104e881610606565b61046883836106bd565b5f7fbd5d72ac35ae1e83aa0625c57eddda63fbb064a87fca99dfdd7ce027384ae28261051d81610606565b610525610613565b82515f03610546576040516321744a5960e01b815260040160405180910390fd5b8251602084015ff091506001600160a01b03821661057757604051633011642560e01b815260040160405180910390fd5b6001805480820182555f9182527fb10e2d527612073b26eecdfd717e6a320cf44b4afac2b0732d9fcbe2b7fa0cf60180546001600160a01b0319166001600160a01b0385169081179091556040517fa39a75e96d9b151e4b5f552a67faebb63c68019bf569b093b0843c90de61a607908390a361060060015f8051602061097883398151915255565b50919050565b6106108133610726565b50565b61061b610763565b60025f8051602061097883398151915255565b5f61063983836104a6565b6106b6575f838152602081815260408083206001600160a01b03861684529091529020805460ff1916600117905561066e3390565b6001600160a01b0316826001600160a01b0316847f2f8788117e7eff1d82e926ec794901d17c78024a50270940304540a733656f0d60405160405180910390a4506001610276565b505f610276565b5f6106c883836104a6565b156106b6575f838152602081815260408083206001600160a01b0386168085529252808320805460ff1916905551339286917ff6391f5c32d9c69d2a47ea670b442974b53935d1edc7fd64eb21e047a839171b9190a4506001610276565b61073082826104a6565b61075f5760405163e2517d3f60e01b81526001600160a01b03821660048201526024810183905260440161035e565b5050565b5f805160206109788339815191525460020361079257604051633ee5aeb560e01b815260040160405180910390fd5b565b5f602082840312156107a4575f80fd5b81356001600160e01b0319811681146107bb575f80fd5b9392505050565b602080825282518282018190525f9190848201906040850190845b818110156108025783516001600160a01b0316835292840192918401916001016107dd565b50909695505050505050565b634e487b7160e01b5f52604160045260245ffd5b5f82601f830112610831575f80fd5b813567ffffffffffffffff8082111561084c5761084c61080e565b604051601f8301601f19908116603f011681019082821181831017156108745761087461080e565b8160405283815286602085880101111561088c575f80fd5b836020870160208301375f602085830101528094505050505092915050565b5f80604083850312156108bc575f80fd5b823567ffffffffffffffff8111156108d2575f80fd5b6108de85828601610822565b95602094909401359450505050565b5f602082840312156108fd575f80fd5b5035919050565b5f8060408385031215610915575f80fd5b8235915060208301356001600160a01b0381168114610932575f80fd5b809150509250929050565b5f6020828403121561094d575f80fd5b813567ffffffffffffffff811115610963575f80fd5b61096f84828501610822565b94935050505056fe9b779b17422d0df92223018b32b4d1fa46e071723d6817e2486d003becc55f00a264697066735822122010ef0deb8e7a792eca8cf090120873ebacb5accdb5227255042ef7dae7d5485264736f6c63430008180033","linkReferences":{}},"methodIdentifiers":{"DEFAULT_ADMIN_ROLE()":"a217fddf","FACTORY_ADMIN_ROLE()":"3360cf5e","computeAddress(bytes,bytes32)":"3e4b9f7a","deployPolicyTypeDeterministic(bytes,bytes32)":"1d20ea5b","deployPolicyTypeVanilla(bytes)":"fbaf1253","getDeployedPolicies()":"0b3ce015","getRoleAdmin(bytes32)":"248a9ca3","grantRole(bytes32,address)":"2f2ff15d","hasRole(bytes32,address)":"91d14854","renounceRole(bytes32,address)":"36568abe","revokeRole(bytes32,address)":"d547741f","supportsInterface(bytes4)":"01ffc9a7"},"id":67}