{"abi":[{"type":"constructor","inputs":[{"name":"baseURI_","type":"string","internalType":"string"},{"name":"admin","type":"address","internalType":"address"}],"stateMutability":"nonpayable"},{"type":"function","name":"BURNER_ROLE","inputs":[],"outputs":[{"name":"","type":"bytes32","internalType":"bytes32"}],"stateMutability":"view"},{"type":"function","name":"DEFAULT_ADMIN_ROLE","inputs":[],"outputs":[{"name":"","type":"bytes32","internalType":"bytes32"}],"stateMutability":"view"},{"type":"function","name":"LIQUIDATION_PROTECTION","inputs":[],"outputs":[{"name":"","type":"uint256","internalType":"uint256"}],"stateMutability":"view"},{"type":"function","name":"MINTER_ROLE","inputs":[],"outputs":[{"name":"","type":"bytes32","internalType":"bytes32"}],"stateMutability":"view"},{"type":"function","name":"SMART_CONTRACT_HACK","inputs":[],"outputs":[{"name":"","type":"uint256","internalType":"uint256"}],"stateMutability":"view"},{"type":"function","name":"STABLECOIN_DEPEG","inputs":[],"outputs":[{"name":"","type":"uint256","internalType":"uint256"}],"stateMutability":"view"},{"type":"function","name":"balanceOf","inputs":[{"name":"account","type":"address","internalType":"address"},{"name":"id","type":"uint256","internalType":"uint256"}],"outputs":[{"name":"","type":"uint256","internalType":"uint256"}],"stateMutability":"view"},{"type":"function","name":"balanceOfBatch","inputs":[{"name":"accounts","type":"address[]","internalType":"address[]"},{"name":"ids","type":"uint256[]","internalType":"uint256[]"}],"outputs":[{"name":"","type":"uint256[]","internalType":"uint256[]"}],"stateMutability":"view"},{"type":"function","name":"burnPolicy","inputs":[{"name":"from","type":"address","internalType":"address"},{"name":"policyTypeId","type":"uint256","internalType":"uint256"},{"name":"amount","type":"uint256","internalType":"uint256"}],"outputs":[],"stateMutability":"nonpayable"},{"type":"function","name":"exists","inputs":[{"name":"id","type":"uint256","internalType":"uint256"}],"outputs":[{"name":"","type":"bool","internalType":"bool"}],"stateMutability":"view"},{"type":"function","name":"getRoleAdmin","inputs":[{"name":"role","type":"bytes32","internalType":"bytes32"}],"outputs":[{"name":"","type":"bytes32","internalType":"bytes32"}],"stateMutability":"view"},{"type":"function","name":"grantRole","inputs":[{"name":"role","type":"bytes32","internalType":"bytes32"},{"name":"account","type":"address","internalType":"address"}],"outputs":[],"stateMutability":"nonpayable"},{"type":"function","name":"hasRole","inputs":[{"name":"role","type":"bytes32","internalType":"bytes32"},{"name":"account","type":"address","internalType":"address"}],"outputs":[{"name":"","type":"bool","internalType":"bool"}],"stateMutability":"view"},{"type":"function","name":"isApprovedForAll","inputs":[{"name":"account","type":"address","internalType":"address"},{"name":"operator","type":"address","internalType":"address"}],"outputs":[{"name":"","type":"bool","internalType":"bool"}],"stateMutability":"view"},{"type":"function","name":"mintPolicy","inputs":[{"name":"to","type":"address","internalType":"address"},{"name":"policyTypeId","type":"uint256","internalType":"uint256"},{"name":"amount","type":"uint256","internalType":"uint256"},{"name":"data","type":"bytes","internalType":"bytes"}],"outputs":[],"stateMutability":"nonpayable"},{"type":"function","name":"renounceRole","inputs":[{"name":"role","type":"bytes32","internalType":"bytes32"},{"name":"callerConfirmation","type":"address","internalType":"address"}],"outputs":[],"stateMutability":"nonpayable"},{"type":"function","name":"revokeRole","inputs":[{"name":"role","type":"bytes32","internalType":"bytes32"},{"name":"account","type":"address","internalType":"address"}],"outputs":[],"stateMutability":"nonpayable"},{"type":"function","name":"safeBatchTransferFrom","inputs":[{"name":"from","type":"address","internalType":"address"},{"name":"to","type":"address","internalType":"address"},{"name":"ids","type":"uint256[]","internalType":"uint256[]"},{"name":"values","type":"uint256[]","internalType":"uint256[]"},{"name":"data","type":"bytes","internalType":"bytes"}],"outputs":[],"stateMutability":"nonpayable"},{"type":"function","name":"safeTransferFrom","inputs":[{"name":"from","type":"address","internalType":"address"},{"name":"to","type":"address","internalType":"address"},{"name":"id","type":"uint256","internalType":"uint256"},{"name":"value","type":"uint256","internalType":"uint256"},{"name":"data","type":"bytes","internalType":"bytes"}],"outputs":[],"stateMutability":"nonpayable"},{"type":"function","name":"setApprovalForAll","inputs":[{"name":"operator","type":"address","internalType":"address"},{"name":"approved","type":"bool","internalType":"bool"}],"outputs":[],"stateMutability":"nonpayable"},{"type":"function","name":"supportsInterface","inputs":[{"name":"interfaceId","type":"bytes4","internalType":"bytes4"}],"outputs":[{"name":"","type":"bool","internalType":"bool"}],"stateMutability":"view"},{"type":"function","name":"totalSupply","inputs":[],"outputs":[{"name":"","type":"uint256","internalType":"uint256"}],"stateMutability":"view"},{"type":"function","name":"totalSupply","inputs":[{"name":"id","type":"uint256","internalType":"uint256"}],"outputs":[{"name":"","type":"uint256","internalType":"uint256"}],"stateMutability":"view"},{"type":"function","name":"uri","inputs":[{"name":"id","type":"uint256","internalType":"uint256"}],"outputs":[{"name":"","type":"string","internalType":"string"}],"stateMutability":"view"},{"type":"event","name":"ApprovalForAll","inputs":[{"name":"account","type":"address","indexed":true,"internalType":"address"},{"name":"operator","type":"address","indexed":true,"internalType":"address"},{"name":"approved","type":"bool","indexed":false,"internalType":"bool"}],"anonymous":false},{"type":"event","name":"RoleAdminChanged","inputs":[{"name":"role","type":"bytes32","indexed":true,"internalType":"bytes32"},{"name":"previousAdminRole","type":"bytes32","indexed":true,"internalType":"bytes32"},{"name":"newAdminRole","type":"bytes32","indexed":true,"internalType":"bytes32"}],"anonymous":false},{"type":"event","name":"RoleGranted","inputs":[{"name":"role","type":"bytes32","indexed":true,"internalType":"bytes32"},{"name":"account","type":"address","indexed":true,"internalType":"address"},{"name":"sender","type":"address","indexed":true,"internalType":"address"}],"anonymous":false},{"type":"event","name":"RoleRevoked","inputs":[{"name":"role","type":"bytes32","indexed":true,"internalType":"bytes32"},{"name":"account","type":"address","indexed":true,"internalType":"address"},{"name":"sender","type":"address","indexed":true,"internalType":"address"}],"anonymous":false},{"type":"event","name":"TransferBatch","inputs":[{"name":"operator","type":"address","indexed":true,"internalType":"address"},{"name":"from","type":"address","indexed":true,"internalType":"address"},{"name":"to","type":"address","indexed":true,"internalType":"address"},{"name":"ids","type":"uint256[]","indexed":false,"internalType":"uint256[]"},{"name":"values","type":"uint256[]","indexed":false,"internalType":"uint256[]"}],"anonymous":false},{"type":"event","name":"TransferSingle","inputs":[{"name":"operator","type":"address","indexed":true,"internalType":"address"},{"name":"from","type":"address","indexed":true,"internalType":"address"},{"name":"to","type":"address","indexed":true,"internalType":"address"},{"name":"id","type":"uint256","indexed":false,"internalType":"uint256"},{"name":"value","type":"uint256","indexed":false,"internalType":"uint256"}],"anonymous":false},{"type":"event","name":"URI","inputs":[{"name":"value","type":"string","indexed":false,"internalType":"string"},{"name":"id","type":"uint256","indexed":true,"internalType":"uint256"}],"anonymous":false},{"type":"error","name":"AccessControlBadConfirmation","inputs":[]},{"type":"error","name":"AccessControlUnauthorizedAccount","inputs":[{"name":"account","type":"address","internalType":"address"},{"name":"neededRole","type":"bytes32","internalType":"bytes32"}]},{"type":"error","name":"ERC1155InsufficientBalance","inputs":[{"name":"sender","type":"address","internalType":"address"},{"name":"balance","type":"uint256","internalType":"uint256"},{"name":"needed","type":"uint256","internalType":"uint256"},{"name":"tokenId","type":"uint256","internalType":"uint256"}]},{"type":"error","name":"ERC1155InvalidApprover","inputs":[{"name":"approver","type":"address","internalType":"address"}]},{"type":"error","name":"ERC1155InvalidArrayLength","inputs":[{"name":"idsLength","type":"uint256","internalType":"uint256"},{"name":"valuesLength","type":"uint256","internalType":"uint256"}]},{"type":"error","name":"ERC1155InvalidOperator","inputs":[{"name":"operator","type":"address","internalType":"address"}]},{"type":"error","name":"ERC1155InvalidReceiver","inputs":[{"name":"receiver","type":"address","internalType":"address"}]},{"type":"error","name":"ERC1155InvalidSender","inputs":[{"name":"sender","type":"address","internalType":"address"}]},{"type":"error","name":"ERC1155MissingApprovalForAll","inputs":[{"name":"operator","type":"address","internalType":"address"},{"name":"owner","type":"address","internalType":"address"}]}],"bytecode":{"object":"0x608060405234801562000010575f80fd5b5060405162001c8e38038062001c8e833981016040819052620000339162000156565b816200003f8162000064565b5060066200004e8382620002c1565b506200005b5f8262000076565b5050506200038d565b6002620000728282620002c1565b5050565b5f8281526005602090815260408083206001600160a01b038516845290915281205460ff166200011d575f8381526005602090815260408083206001600160a01b03861684529091529020805460ff19166001179055620000d43390565b6001600160a01b0316826001600160a01b0316847f2f8788117e7eff1d82e926ec794901d17c78024a50270940304540a733656f0d60405160405180910390a450600162000120565b505f5b92915050565b634e487b7160e01b5f52604160045260245ffd5b80516001600160a01b038116811462000151575f80fd5b919050565b5f806040838503121562000168575f80fd5b82516001600160401b03808211156200017f575f80fd5b818501915085601f83011262000193575f80fd5b815181811115620001a857620001a862000126565b604051601f8201601f19908116603f01168101908382118183101715620001d357620001d362000126565b81604052828152602093508884848701011115620001ef575f80fd5b5f91505b82821015620002125784820184015181830185015290830190620001f3565b5f8484830101528096505050506200022c8186016200013a565b925050509250929050565b600181811c908216806200024c57607f821691505b6020821081036200026b57634e487b7160e01b5f52602260045260245ffd5b50919050565b601f821115620002bc57805f5260205f20601f840160051c81016020851015620002985750805b601f840160051c820191505b81811015620002b9575f8155600101620002a4565b50505b505050565b81516001600160401b03811115620002dd57620002dd62000126565b620002f581620002ee845462000237565b8462000271565b602080601f8311600181146200032b575f8415620003135750858301515b5f19600386901b1c1916600185901b17855562000385565b5f85815260208120601f198616915b828110156200035b578886015182559484019460019091019084016200033a565b50858210156200037957878501515f19600388901b60f8161c191681555b505060018460011b0185555b505050505050565b6118f3806200039b5f395ff3fe608060405234801561000f575f80fd5b5060043610610152575f3560e01c806350d87b80116100bf578063a36a6df811610079578063a36a6df8146102e7578063bd85b039146102ef578063d53913931461030e578063d547741f14610335578063e985e9c514610348578063f242432a14610383575f80fd5b806350d87b801461029f57806350df5522146102a75780635899b76e146102ba57806391d14854146102c1578063a217fddf146102ba578063a22cb465146102d4575f80fd5b80632eb2c2d6116101105780632eb2c2d6146102105780632f2ff15d1461022557806336568abe146102385780633980c2491461024b5780634e1273f41461025e5780634f558e791461027e575f80fd5b8062fdd58e1461015657806301ffc9a71461017c5780630e89341c1461019f57806318160ddd146101bf578063248a9ca3146101c7578063282c51f3146101e9575b5f80fd5b6101696101643660046111b0565b610396565b6040519081526020015b60405180910390f35b61018f61018a3660046111ed565b6103bd565b6040519015158152602001610173565b6101b26101ad36600461120f565b6103c7565b6040516101739190611273565b600454610169565b6101696101d536600461120f565b5f9081526005602052604090206001015490565b6101697f3c11d16cbaffd01df69ce1c404f6340ee057498f5f00246190ea54220576a84881565b61022361021e3660046113c5565b6103fb565b005b610223610233366004611468565b61041a565b610223610246366004611468565b610444565b610223610259366004611492565b61047c565b61027161026c3660046114ef565b6104b2565b60405161017391906115e3565b61018f61028c36600461120f565b5f90815260036020526040902054151590565b610169600181565b6102236102b53660046115f5565b610582565b6101695f81565b61018f6102cf366004611468565b6105b7565b6102236102e2366004611625565b6105e1565b610169600281565b6101696102fd36600461120f565b5f9081526003602052604090205490565b6101697f9f2df0fed2c77648de5860a4cc508cd0818c85b8b8a1ab4ceeef8d981c8956a681565b610223610343366004611468565b6105f0565b61018f61035636600461165e565b6001600160a01b039182165f90815260016020908152604080832093909416825291909152205460ff1690565b610223610391366004611686565b610614565b5f818152602081815260408083206001600160a01b03861684529091529020545b92915050565b5f6103b78261062a565b606060066103d48361064e565b6040516020016103e5929190611701565b6040516020818303038152906040529050919050565b610406335b866106de565b6104138585858585610756565b5050505050565b5f82815260056020526040902060010154610434816107b6565b61043e83836107c3565b50505050565b6001600160a01b038116331461046d5760405163334bd91960e11b815260040160405180910390fd5b6104778282610854565b505050565b7f9f2df0fed2c77648de5860a4cc508cd0818c85b8b8a1ab4ceeef8d981c8956a66104a6816107b6565b610413858585856108bf565b606081518351146104e85781518351604051635b05999160e01b8152600481019290925260248201526044015b60405180910390fd5b5f835167ffffffffffffffff81111561050357610503611285565b60405190808252806020026020018201604052801561052c578160200160208202803683370190505b5090505f5b845181101561057a5760208082028601015161055590602080840287010151610396565b828281518110610567576105676117aa565b6020908102919091010152600101610531565b509392505050565b7f3c11d16cbaffd01df69ce1c404f6340ee057498f5f00246190ea54220576a8486105ac816107b6565b61043e848484610923565b5f9182526005602090815260408084206001600160a01b0393909316845291905290205460ff1690565b6105ec33838361098a565b5050565b5f8281526005602052604090206001015461060a816107b6565b61043e8383610854565b61061d33610400565b6104138585858585610a47565b5f6001600160e01b03198216637965db0b60e01b14806103b757506103b782610ad4565b60605f61065a83610b23565b60010190505f8167ffffffffffffffff81111561067957610679611285565b6040519080825280601f01601f1916602001820160405280156106a3576020820181803683370190505b5090508181016020015b5f19016f181899199a1a9b1b9c1cb0b131b232b360811b600a86061a8153600a85049450846106ad57509392505050565b816001600160a01b0316816001600160a01b03161415801561072557506001600160a01b038082165f9081526001602090815260408083209386168352929052205460ff16155b156105ec5760405163711bec9160e11b81526001600160a01b038084166004830152821660248201526044016104df565b6001600160a01b03841661077f57604051632bfa23e760e11b81525f60048201526024016104df565b6001600160a01b0385166107a757604051626a0d4560e21b81525f60048201526024016104df565b61041385858585856001610bfa565b6107c08133610c52565b50565b5f6107ce83836105b7565b61084d575f8381526005602090815260408083206001600160a01b03861684529091529020805460ff191660011790556108053390565b6001600160a01b0316826001600160a01b0316847f2f8788117e7eff1d82e926ec794901d17c78024a50270940304540a733656f0d60405160405180910390a45060016103b7565b505f6103b7565b5f61085f83836105b7565b1561084d575f8381526005602090815260408083206001600160a01b0386168085529252808320805460ff1916905551339286917ff6391f5c32d9c69d2a47ea670b442974b53935d1edc7fd64eb21e047a839171b9190a45060016103b7565b6001600160a01b0384166108e857604051632bfa23e760e11b81525f60048201526024016104df565b6040805160018082526020820186905281830190815260608201859052608082019092529061091b5f8784848784610bfa565b505050505050565b6001600160a01b03831661094b57604051626a0d4560e21b81525f60048201526024016104df565b604080516001808252602082018590528183019081526060820184905260a082019092525f608082018181529192916104139187918590859083610bfa565b6001600160a01b0383166109b357604051631f18c42760e11b81525f60048201526024016104df565b6001600160a01b0382166109db5760405162ced3e160e81b81525f60048201526024016104df565b6001600160a01b038381165f81815260016020908152604080832094871680845294825291829020805460ff191686151590811790915591519182527f17307eab39ab6107e8899845ad3d59bd9653f200f220920489ca2b5937696c31910160405180910390a3505050565b6001600160a01b038416610a7057604051632bfa23e760e11b81525f60048201526024016104df565b6001600160a01b038516610a9857604051626a0d4560e21b81525f60048201526024016104df565b60408051600180825260208201869052818301908152606082018590526080820190925290610acb87878484875f610bfa565b50505050505050565b5f6001600160e01b03198216636cdb3d1360e11b1480610b0457506001600160e01b031982166303a24d0760e21b145b806103b757506301ffc9a760e01b6001600160e01b03198316146103b7565b5f8072184f03e93ff9f4daa797ed6e38ed64bf6a1f0160401b8310610b615772184f03e93ff9f4daa797ed6e38ed64bf6a1f0160401b830492506040015b6d04ee2d6d415b85acef81000000008310610b8d576d04ee2d6d415b85acef8100000000830492506020015b662386f26fc100008310610bab57662386f26fc10000830492506010015b6305f5e1008310610bc3576305f5e100830492506008015b6127108310610bd757612710830492506004015b60648310610be9576064830492506002015b600a83106103b75760010192915050565b610c0686868686610c8b565b6001600160a01b0385161561091b57338115610c2f57610c2a818888888888610c97565b610acb565b60208581015190850151610c47838a8a85858a610db8565b505050505050505050565b610c5c82826105b7565b6105ec5760405163e2517d3f60e01b81526001600160a01b0382166004820152602481018390526044016104df565b61043e84848484610e9f565b6001600160a01b0384163b1561091b5760405163bc197c8160e01b81526001600160a01b0385169063bc197c8190610cdb90899089908890889088906004016117be565b6020604051808303815f875af1925050508015610d15575060408051601f3d908101601f19168201909252610d129181019061181b565b60015b610d7c573d808015610d42576040519150601f19603f3d011682016040523d82523d5f602084013e610d47565b606091505b5080515f03610d7457604051632bfa23e760e11b81526001600160a01b03861660048201526024016104df565b805160208201fd5b6001600160e01b0319811663bc197c8160e01b14610acb57604051632bfa23e760e11b81526001600160a01b03861660048201526024016104df565b6001600160a01b0384163b1561091b5760405163f23a6e6160e01b81526001600160a01b0385169063f23a6e6190610dfc9089908990889088908890600401611836565b6020604051808303815f875af1925050508015610e36575060408051601f3d908101601f19168201909252610e339181019061181b565b60015b610e63573d808015610d42576040519150601f19603f3d011682016040523d82523d5f602084013e610d47565b6001600160e01b0319811663f23a6e6160e01b14610acb57604051632bfa23e760e11b81526001600160a01b03861660048201526024016104df565b610eab84848484610f86565b6001600160a01b038416610f28575f805b8351811015610f0f5760208181028481018201519086018201515f908152600390925260408220805491928392610ef490849061187a565b90915550610f049050818461187a565b925050600101610ebc565b508060045f828254610f21919061187a565b9091555050505b6001600160a01b03831661043e575f805b8351811015610f755760208181028481018201519086018201515f90815260039092526040909120805482900390559190910190600101610f39565b506004805491909103905550505050565b8051825114610fb55781518151604051635b05999160e01b8152600481019290925260248201526044016104df565b335f5b83518110156110b7576020818102858101820151908501909101516001600160a01b03881615611069575f828152602081815260408083206001600160a01b038c16845290915290205481811015611043576040516303dee4c560e01b81526001600160a01b038a1660048201526024810182905260448101839052606481018490526084016104df565b5f838152602081815260408083206001600160a01b038d16845290915290209082900390555b6001600160a01b038716156110ad575f828152602081815260408083206001600160a01b038b168452909152812080548392906110a790849061187a565b90915550505b5050600101610fb8565b5082516001036111375760208301515f906020840151909150856001600160a01b0316876001600160a01b0316846001600160a01b03167fc3d58168c5ae7397731d063d5bbf3d657854427343f4c083240f7aacaa2d0f628585604051611128929190918252602082015260400190565b60405180910390a45050610413565b836001600160a01b0316856001600160a01b0316826001600160a01b03167f4a39dc06d4c0dbc64b70af90fd698a233a518aa5d07e595d983b8c0526c8f7fb8686604051611186929190611899565b60405180910390a45050505050565b80356001600160a01b03811681146111ab575f80fd5b919050565b5f80604083850312156111c1575f80fd5b6111ca83611195565b946020939093013593505050565b6001600160e01b0319811681146107c0575f80fd5b5f602082840312156111fd575f80fd5b8135611208816111d8565b9392505050565b5f6020828403121561121f575f80fd5b5035919050565b5f5b83811015611240578181015183820152602001611228565b50505f910152565b5f815180845261125f816020860160208601611226565b601f01601f19169290920160200192915050565b602081525f6112086020830184611248565b634e487b7160e01b5f52604160045260245ffd5b604051601f8201601f1916810167ffffffffffffffff811182821017156112c2576112c2611285565b604052919050565b5f67ffffffffffffffff8211156112e3576112e3611285565b5060051b60200190565b5f82601f8301126112fc575f80fd5b8135602061131161130c836112ca565b611299565b8083825260208201915060208460051b870101935086841115611332575f80fd5b602086015b8481101561134e5780358352918301918301611337565b509695505050505050565b5f82601f830112611368575f80fd5b813567ffffffffffffffff81111561138257611382611285565b611395601f8201601f1916602001611299565b8181528460208386010111156113a9575f80fd5b816020850160208301375f918101602001919091529392505050565b5f805f805f60a086880312156113d9575f80fd5b6113e286611195565b94506113f060208701611195565b9350604086013567ffffffffffffffff8082111561140c575f80fd5b61141889838a016112ed565b9450606088013591508082111561142d575f80fd5b61143989838a016112ed565b9350608088013591508082111561144e575f80fd5b5061145b88828901611359565b9150509295509295909350565b5f8060408385031215611479575f80fd5b8235915061148960208401611195565b90509250929050565b5f805f80608085870312156114a5575f80fd5b6114ae85611195565b93506020850135925060408501359150606085013567ffffffffffffffff8111156114d7575f80fd5b6114e387828801611359565b91505092959194509250565b5f8060408385031215611500575f80fd5b823567ffffffffffffffff80821115611517575f80fd5b818501915085601f83011261152a575f80fd5b8135602061153a61130c836112ca565b82815260059290921b84018101918181019089841115611558575f80fd5b948201945b8386101561157d5761156e86611195565b8252948201949082019061155d565b96505086013592505080821115611592575f80fd5b5061159f858286016112ed565b9150509250929050565b5f815180845260208085019450602084015f5b838110156115d8578151875295820195908201906001016115bc565b509495945050505050565b602081525f61120860208301846115a9565b5f805f60608486031215611607575f80fd5b61161084611195565b95602085013595506040909401359392505050565b5f8060408385031215611636575f80fd5b61163f83611195565b915060208301358015158114611653575f80fd5b809150509250929050565b5f806040838503121561166f575f80fd5b61167883611195565b915061148960208401611195565b5f805f805f60a0868803121561169a575f80fd5b6116a386611195565b94506116b160208701611195565b93506040860135925060608601359150608086013567ffffffffffffffff8111156116da575f80fd5b61145b88828901611359565b5f81516116f7818560208601611226565b9290920192915050565b5f8084545f60018260011c9150600183168061171e57607f831692505b6020808410820361173d57634e487b7160e01b5f52602260045260245ffd5b818015611751576001811461176657611791565b60ff1986168952841515850289019650611791565b5f8b8152602090205f5b868110156117895781548b820152908501908301611770565b505084890196505b5050505050506117a181856116e6565b95945050505050565b634e487b7160e01b5f52603260045260245ffd5b6001600160a01b0386811682528516602082015260a0604082018190525f906117e9908301866115a9565b82810360608401526117fb81866115a9565b9050828103608084015261180f8185611248565b98975050505050505050565b5f6020828403121561182b575f80fd5b8151611208816111d8565b6001600160a01b03868116825285166020820152604081018490526060810183905260a0608082018190525f9061186f90830184611248565b979650505050505050565b808201808211156103b757634e487b7160e01b5f52601160045260245ffd5b604081525f6118ab60408301856115a9565b82810360208401526117a181856115a956fea2646970667358221220c2aa5e4722c975ff06bc6349ecedb05b0a80a55022bd60e3a4b1699f7f5a941d64736f6c63430008180033","linkReferences":{}},"methodIdentifiers":{"BURNER_ROLE()":"282c51f3","DEFAULT_ADMIN_ROLE()":"a217fddf","LIQUIDATION_PROTECTION()":"50d87b80","MINTER_ROLE()":"d5391393","SMART_CONTRACT_HACK()":"a36a6df8","STABLECOIN_DEPEG()":"5899b76e","balanceOf(address,uint256)":"00fdd58e","balanceOfBatch(address[],uint256[])":"4e1273f4","burnPolicy(address,uint256,uint256)":"50df5522","exists(uint256)":"4f558e79","getRoleAdmin(bytes32)":"248a9ca3","grantRole(bytes32,address)":"2f2ff15d","hasRole(bytes32,address)":"91d14854","isApprovedForAll(address,address)":"e985e9c5","mintPolicy(address,uint256,uint256,bytes)":"3980c249","renounceRole(bytes32,address)":"36568abe","revokeRole(bytes32,address)":"d547741f","safeBatchTransferFrom(address,address,uint256[],uint256[],bytes)":"2eb2c2d6","safeTransferFrom(address,address,uint256,uint256,bytes)":"f242432a","setApprovalForAll(address,bool)":"a22cb465","supportsInterface(bytes4)":"01ffc9a7","totalSupply()":"18160ddd","totalSupply(uint256)":"bd85b039","uri(uint256)":"0e89341c"},"id":68}