{"abi":[{"type":"constructor","inputs":[{"name":"_deployer","type":"address","internalType":"address"}],"stateMutability":"nonpayable"},{"type":"function","name":"CLOCK_MODE","inputs":[],"outputs":[{"name":"","type":"string","internalType":"string"}],"stateMutability":"view"},{"type":"function","name":"DOMAIN_SEPARATOR","inputs":[],"outputs":[{"name":"","type":"bytes32","internalType":"bytes32"}],"stateMutability":"view"},{"type":"function","name":"MAX_SUPPLY","inputs":[],"outputs":[{"name":"","type":"uint256","internalType":"uint256"}],"stateMutability":"view"},{"type":"function","name":"acceptOwnership","inputs":[],"outputs":[],"stateMutability":"nonpayable"},{"type":"function","name":"allowance","inputs":[{"name":"owner","type":"address","internalType":"address"},{"name":"spender","type":"address","internalType":"address"}],"outputs":[{"name":"","type":"uint256","internalType":"uint256"}],"stateMutability":"view"},{"type":"function","name":"approve","inputs":[{"name":"spender","type":"address","internalType":"address"},{"name":"value","type":"uint256","internalType":"uint256"}],"outputs":[{"name":"","type":"bool","internalType":"bool"}],"stateMutability":"nonpayable"},{"type":"function","name":"balanceOf","inputs":[{"name":"account","type":"address","internalType":"address"}],"outputs":[{"name":"","type":"uint256","internalType":"uint256"}],"stateMutability":"view"},{"type":"function","name":"burn","inputs":[{"name":"value","type":"uint256","internalType":"uint256"}],"outputs":[],"stateMutability":"nonpayable"},{"type":"function","name":"burnFrom","inputs":[{"name":"account","type":"address","internalType":"address"},{"name":"value","type":"uint256","internalType":"uint256"}],"outputs":[],"stateMutability":"nonpayable"},{"type":"function","name":"checkpoints","inputs":[{"name":"account","type":"address","internalType":"address"},{"name":"pos","type":"uint32","internalType":"uint32"}],"outputs":[{"name":"","type":"tuple","internalType":"struct Checkpoints.Checkpoint208","components":[{"name":"_key","type":"uint48","internalType":"uint48"},{"name":"_value","type":"uint208","internalType":"uint208"}]}],"stateMutability":"view"},{"type":"function","name":"clock","inputs":[],"outputs":[{"name":"","type":"uint48","internalType":"uint48"}],"stateMutability":"view"},{"type":"function","name":"decimals","inputs":[],"outputs":[{"name":"","type":"uint8","internalType":"uint8"}],"stateMutability":"view"},{"type":"function","name":"delegate","inputs":[{"name":"delegatee","type":"address","internalType":"address"}],"outputs":[],"stateMutability":"nonpayable"},{"type":"function","name":"delegateBySig","inputs":[{"name":"delegatee","type":"address","internalType":"address"},{"name":"nonce","type":"uint256","internalType":"uint256"},{"name":"expiry","type":"uint256","internalType":"uint256"},{"name":"v","type":"uint8","internalType":"uint8"},{"name":"r","type":"bytes32","internalType":"bytes32"},{"name":"s","type":"bytes32","internalType":"bytes32"}],"outputs":[],"stateMutability":"nonpayable"},{"type":"function","name":"delegates","inputs":[{"name":"account","type":"address","internalType":"address"}],"outputs":[{"name":"","type":"address","internalType":"address"}],"stateMutability":"view"},{"type":"function","name":"eip712Domain","inputs":[],"outputs":[{"name":"fields","type":"bytes1","internalType":"bytes1"},{"name":"name","type":"string","internalType":"string"},{"name":"version","type":"string","internalType":"string"},{"name":"chainId","type":"uint256","internalType":"uint256"},{"name":"verifyingContract","type":"address","internalType":"address"},{"name":"salt","type":"bytes32","internalType":"bytes32"},{"name":"extensions","type":"uint256[]","internalType":"uint256[]"}],"stateMutability":"view"},{"type":"function","name":"getPastTotalSupply","inputs":[{"name":"timepoint","type":"uint256","internalType":"uint256"}],"outputs":[{"name":"","type":"uint256","internalType":"uint256"}],"stateMutability":"view"},{"type":"function","name":"getPastVotes","inputs":[{"name":"account","type":"address","internalType":"address"},{"name":"timepoint","type":"uint256","internalType":"uint256"}],"outputs":[{"name":"","type":"uint256","internalType":"uint256"}],"stateMutability":"view"},{"type":"function","name":"getVotes","inputs":[{"name":"account","type":"address","internalType":"address"}],"outputs":[{"name":"","type":"uint256","internalType":"uint256"}],"stateMutability":"view"},{"type":"function","name":"mint","inputs":[{"name":"to","type":"address","internalType":"address"},{"name":"amount","type":"uint256","internalType":"uint256"}],"outputs":[],"stateMutability":"nonpayable"},{"type":"function","name":"name","inputs":[],"outputs":[{"name":"","type":"string","internalType":"string"}],"stateMutability":"view"},{"type":"function","name":"nonces","inputs":[{"name":"owner","type":"address","internalType":"address"}],"outputs":[{"name":"","type":"uint256","internalType":"uint256"}],"stateMutability":"view"},{"type":"function","name":"numCheckpoints","inputs":[{"name":"account","type":"address","internalType":"address"}],"outputs":[{"name":"","type":"uint32","internalType":"uint32"}],"stateMutability":"view"},{"type":"function","name":"owner","inputs":[],"outputs":[{"name":"","type":"address","internalType":"address"}],"stateMutability":"view"},{"type":"function","name":"pendingOwner","inputs":[],"outputs":[{"name":"","type":"address","internalType":"address"}],"stateMutability":"view"},{"type":"function","name":"permit","inputs":[{"name":"owner","type":"address","internalType":"address"},{"name":"spender","type":"address","internalType":"address"},{"name":"value","type":"uint256","internalType":"uint256"},{"name":"deadline","type":"uint256","internalType":"uint256"},{"name":"v","type":"uint8","internalType":"uint8"},{"name":"r","type":"bytes32","internalType":"bytes32"},{"name":"s","type":"bytes32","internalType":"bytes32"}],"outputs":[],"stateMutability":"nonpayable"},{"type":"function","name":"renounceOwnership","inputs":[],"outputs":[],"stateMutability":"nonpayable"},{"type":"function","name":"symbol","inputs":[],"outputs":[{"name":"","type":"string","internalType":"string"}],"stateMutability":"view"},{"type":"function","name":"totalSupply","inputs":[],"outputs":[{"name":"","type":"uint256","internalType":"uint256"}],"stateMutability":"view"},{"type":"function","name":"transfer","inputs":[{"name":"to","type":"address","internalType":"address"},{"name":"value","type":"uint256","internalType":"uint256"}],"outputs":[{"name":"","type":"bool","internalType":"bool"}],"stateMutability":"nonpayable"},{"type":"function","name":"transferFrom","inputs":[{"name":"from","type":"address","internalType":"address"},{"name":"to","type":"address","internalType":"address"},{"name":"value","type":"uint256","internalType":"uint256"}],"outputs":[{"name":"","type":"bool","internalType":"bool"}],"stateMutability":"nonpayable"},{"type":"function","name":"transferOwnership","inputs":[{"name":"newOwner","type":"address","internalType":"address"}],"outputs":[],"stateMutability":"nonpayable"},{"type":"event","name":"Approval","inputs":[{"name":"owner","type":"address","indexed":true,"internalType":"address"},{"name":"spender","type":"address","indexed":true,"internalType":"address"},{"name":"value","type":"uint256","indexed":false,"internalType":"uint256"}],"anonymous":false},{"type":"event","name":"DelegateChanged","inputs":[{"name":"delegator","type":"address","indexed":true,"internalType":"address"},{"name":"fromDelegate","type":"address","indexed":true,"internalType":"address"},{"name":"toDelegate","type":"address","indexed":true,"internalType":"address"}],"anonymous":false},{"type":"event","name":"DelegateVotesChanged","inputs":[{"name":"delegate","type":"address","indexed":true,"internalType":"address"},{"name":"previousVotes","type":"uint256","indexed":false,"internalType":"uint256"},{"name":"newVotes","type":"uint256","indexed":false,"internalType":"uint256"}],"anonymous":false},{"type":"event","name":"EIP712DomainChanged","inputs":[],"anonymous":false},{"type":"event","name":"OwnershipTransferStarted","inputs":[{"name":"previousOwner","type":"address","indexed":true,"internalType":"address"},{"name":"newOwner","type":"address","indexed":true,"internalType":"address"}],"anonymous":false},{"type":"event","name":"OwnershipTransferred","inputs":[{"name":"previousOwner","type":"address","indexed":true,"internalType":"address"},{"name":"newOwner","type":"address","indexed":true,"internalType":"address"}],"anonymous":false},{"type":"event","name":"Transfer","inputs":[{"name":"from","type":"address","indexed":true,"internalType":"address"},{"name":"to","type":"address","indexed":true,"internalType":"address"},{"name":"value","type":"uint256","indexed":false,"internalType":"uint256"}],"anonymous":false},{"type":"error","name":"CheckpointUnorderedInsertion","inputs":[]},{"type":"error","name":"ECDSAInvalidSignature","inputs":[]},{"type":"error","name":"ECDSAInvalidSignatureLength","inputs":[{"name":"length","type":"uint256","internalType":"uint256"}]},{"type":"error","name":"ECDSAInvalidSignatureS","inputs":[{"name":"s","type":"bytes32","internalType":"bytes32"}]},{"type":"error","name":"ERC20ExceededSafeSupply","inputs":[{"name":"increasedSupply","type":"uint256","internalType":"uint256"},{"name":"cap","type":"uint256","internalType":"uint256"}]},{"type":"error","name":"ERC20InsufficientAllowance","inputs":[{"name":"spender","type":"address","internalType":"address"},{"name":"allowance","type":"uint256","internalType":"uint256"},{"name":"needed","type":"uint256","internalType":"uint256"}]},{"type":"error","name":"ERC20InsufficientBalance","inputs":[{"name":"sender","type":"address","internalType":"address"},{"name":"balance","type":"uint256","internalType":"uint256"},{"name":"needed","type":"uint256","internalType":"uint256"}]},{"type":"error","name":"ERC20InvalidApprover","inputs":[{"name":"approver","type":"address","internalType":"address"}]},{"type":"error","name":"ERC20InvalidReceiver","inputs":[{"name":"receiver","type":"address","internalType":"address"}]},{"type":"error","name":"ERC20InvalidSender","inputs":[{"name":"sender","type":"address","internalType":"address"}]},{"type":"error","name":"ERC20InvalidSpender","inputs":[{"name":"spender","type":"address","internalType":"address"}]},{"type":"error","name":"ERC2612ExpiredSignature","inputs":[{"name":"deadline","type":"uint256","internalType":"uint256"}]},{"type":"error","name":"ERC2612InvalidSigner","inputs":[{"name":"signer","type":"address","internalType":"address"},{"name":"owner","type":"address","internalType":"address"}]},{"type":"error","name":"ERC5805FutureLookup","inputs":[{"name":"timepoint","type":"uint256","internalType":"uint256"},{"name":"clock","type":"uint48","internalType":"uint48"}]},{"type":"error","name":"ERC6372InconsistentClock","inputs":[]},{"type":"error","name":"ExceedsMaxSupply","inputs":[{"name":"requested","type":"uint256","internalType":"uint256"},{"name":"available","type":"uint256","internalType":"uint256"}]},{"type":"error","name":"InvalidAccountNonce","inputs":[{"name":"account","type":"address","internalType":"address"},{"name":"currentNonce","type":"uint256","internalType":"uint256"}]},{"type":"error","name":"InvalidShortString","inputs":[]},{"type":"error","name":"OwnableInvalidOwner","inputs":[{"name":"owner","type":"address","internalType":"address"}]},{"type":"error","name":"OwnableUnauthorizedAccount","inputs":[{"name":"account","type":"address","internalType":"address"}]},{"type":"error","name":"SafeCastOverflowedUintDowncast","inputs":[{"name":"bits","type":"uint8","internalType":"uint8"},{"name":"value","type":"uint256","internalType":"uint256"}]},{"type":"error","name":"StringTooLong","inputs":[{"name":"str","type":"string","internalType":"string"}]},{"type":"error","name":"VotesExpiredSignature","inputs":[{"name":"expiry","type":"uint256","internalType":"uint256"}]}],"bytecode":{"object":"0x61016060405234801562000011575f80fd5b5060405162002cb438038062002cb4833981016040819052620000349162000957565b8060405180604001604052806009815260200168496e7375726544414f60b81b81525080604051806040016040528060018152602001603160f81b81525060405180604001604052806009815260200168496e7375726544414f60b81b815250604051806040016040528060048152602001634944414f60e01b8152508160039081620000c2919062000a1c565b506004620000d1828262000a1c565b50620000e391508390506005620001e4565b61012052620000f4816006620001e4565b61014052815160208084019190912060e052815190820120610100524660a0526200018160e05161010051604080517f8b73c3c69bb8fe3d512ecc4cf759cc79239f7b179b0ffacaa9a75d522b39400f60208201529081019290925260608201524660808201523060a08201525f9060c00160405160208183030381529060405280519060200120905090565b60805250503060c052506001600160a01b038116620001ba57604051631e4fbdf760e01b81525f60048201526024015b60405180910390fd5b620001c5816200021c565b50620001dd816a084595161401484a0000006200023a565b5062000be7565b5f6020835110156200020357620001fb8362000276565b905062000216565b8162000210848262000a1c565b5060ff90505b92915050565b600c80546001600160a01b03191690556200023781620002b8565b50565b6001600160a01b038216620002655760405163ec442f0560e01b81525f6004820152602401620001b1565b620002725f838362000309565b5050565b5f80829050601f81511115620002a3578260405163305a27a960e01b8152600401620001b1919062000ae8565b8051620002b08262000b36565b179392505050565b600b80546001600160a01b038381166001600160a01b0319831681179093556040519116919082907f8be0079c531659141344cd1fd0a4f28419497f9722a3daafe3b4186f6b6457e0905f90a35050565b620003168383836200031b565b505050565b6200032883838362000389565b6001600160a01b0383166200037c575f6200034260025490565b90506001600160d01b03808211156200037957604051630e58ae9360e11b81526004810183905260248101829052604401620001b1565b50505b62000316838383620004b8565b6001600160a01b038316620003b7578060025f828254620003ab919062000b6e565b90915550620004299050565b6001600160a01b0383165f90815260208190526040902054818110156200040b5760405163391434e360e21b81526001600160a01b03851660048201526024810182905260448101839052606401620001b1565b6001600160a01b0384165f9081526020819052604090209082900390555b6001600160a01b038216620004475760028054829003905562000465565b6001600160a01b0382165f9081526020819052604090208054820190555b816001600160a01b0316836001600160a01b03167fddf252ad1be2c89b69c2b068fc378daa952ba7f163c4a11628f55a4df523b3ef83604051620004ab91815260200190565b60405180910390a3505050565b6001600160a01b038316620004ed57620004ea600a62000a506200054f60201b17620004e48462000563565b6200059c565b50505b6001600160a01b0382166200051c5762000519600a62000a5b620005d860201b17620004e48462000563565b50505b6001600160a01b038381165f908152600860205260408082205485841683529120546200031692918216911683620005e5565b5f6200055c828462000b84565b9392505050565b5f6001600160d01b0382111562000598576040516306dfcc6560e41b815260d0600482015260248101839052604401620001b1565b5090565b5f80620005cb620005ac62000747565b620005c2620005bb8862000757565b868860201c565b879190620007a3565b915091505b935093915050565b5f6200055c828462000bae565b816001600160a01b0316836001600160a01b0316141580156200060757505f81115b1562000316576001600160a01b03831615620006a8576001600160a01b0383165f90815260096020908152604082208291620006549190620005d8901b62000a5b17620004e48662000563565b6001600160d01b031691506001600160d01b03169150846001600160a01b03165f8051602062002c9483398151915283836040516200069d929190918252602082015260400190565b60405180910390a250505b6001600160a01b0382161562000316576001600160a01b0382165f90815260096020908152604082208291620006ef91906200054f901b62000a5017620004e48662000563565b6001600160d01b031691506001600160d01b03169150836001600160a01b03165f8051602062002c94833981519152838360405162000738929190918252602082015260400190565b60405180910390a25050505050565b5f62000752620007b2565b905090565b80545f9080156200079b5762000781836200077460018462000bd1565b5f91825260209091200190565b54660100000000000090046001600160d01b03166200055c565b5f9392505050565b5f80620005cb858585620007be565b5f620007524362000923565b82545f9081908015620008c5575f620007de876200077460018562000bd1565b805490915065ffffffffffff80821691660100000000000090046001600160d01b03169088168211156200082557604051632520601d60e01b815260040160405180910390fd5b8765ffffffffffff168265ffffffffffff16036200086357825465ffffffffffff1666010000000000006001600160d01b03891602178355620008b6565b6040805180820190915265ffffffffffff808a1682526001600160d01b03808a1660208085019182528d54600181018f555f8f815291909120945191519092166601000000000000029216919091179101555b9450859350620005d092505050565b50506040805180820190915265ffffffffffff80851682526001600160d01b0380851660208085019182528854600181018a555f8a8152918220955192519093166601000000000000029190931617920191909155905081620005d0565b5f65ffffffffffff82111562000598576040516306dfcc6560e41b81526030600482015260248101839052604401620001b1565b5f6020828403121562000968575f80fd5b81516001600160a01b03811681146200055c575f80fd5b634e487b7160e01b5f52604160045260245ffd5b600181811c90821680620009a857607f821691505b602082108103620009c757634e487b7160e01b5f52602260045260245ffd5b50919050565b601f8211156200031657805f5260205f20601f840160051c81016020851015620009f45750805b601f840160051c820191505b8181101562000a15575f815560010162000a00565b5050505050565b81516001600160401b0381111562000a385762000a386200097f565b62000a508162000a49845462000993565b84620009cd565b602080601f83116001811462000a86575f841562000a6e5750858301515b5f19600386901b1c1916600185901b17855562000ae0565b5f85815260208120601f198616915b8281101562000ab65788860151825594840194600190910190840162000a95565b508582101562000ad457878501515f19600388901b60f8161c191681555b505060018460011b0185555b505050505050565b5f602080835283518060208501525f5b8181101562000b165785810183015185820160400152820162000af8565b505f604082860101526040601f19601f8301168501019250505092915050565b80516020808301519190811015620009c7575f1960209190910360031b1b16919050565b634e487b7160e01b5f52601160045260245ffd5b8082018082111562000216576200021662000b5a565b6001600160d01b0381811683821601908082111562000ba75762000ba762000b5a565b5092915050565b6001600160d01b0382811682821603908082111562000ba75762000ba762000b5a565b8181038181111562000216576200021662000b5a565b60805160a05160c05160e05161010051610120516101405161205b62000c395f395f610f1f01525f610ef201525f610c2a01525f610c0201525f610b5d01525f610b8701525f610bb1015261205b5ff3fe608060405234801561000f575f80fd5b50600436106101e7575f3560e01c806379ba5097116101095780639ab24eb01161009e578063dd62ed3e1161006e578063dd62ed3e1461044b578063e30c397814610483578063f1127ed814610494578063f2fde38b146104d3575f80fd5b80639ab24eb0146103ff578063a9059cbb14610412578063c3cda52014610425578063d505accf14610438575f80fd5b80638da5cb5b116100d95780638da5cb5b146103b45780638e539e8c146103c557806391ddadf4146103d857806395d89b41146103f7575f80fd5b806379ba50971461036b57806379cc6790146103735780637ecebe001461038657806384b0196e14610399575f80fd5b806340c10f191161017f5780635c19a95c1161014f5780635c19a95c146103005780636fcfff451461031357806370a082311461033b578063715018a614610363575f80fd5b806340c10f191461028d57806342966c68146102a25780634bf5d7e9146102b5578063587cde1e146102bd575f80fd5b8063313ce567116101ba578063313ce5671461025157806332cb6b0c146102605780633644e515146102725780633a46b1a81461027a575f80fd5b806306fdde03146101eb578063095ea7b31461020957806318160ddd1461022c57806323b872dd1461023e575b5f80fd5b6101f36104e6565b6040516102009190611ca4565b60405180910390f35b61021c610217366004611cd1565b610576565b6040519015158152602001610200565b6002545b604051908152602001610200565b61021c61024c366004611cf9565b61058f565b60405160128152602001610200565b6102306a52b7d2dcc80cd2e400000081565b6102306105b2565b610230610288366004611cd1565b6105c0565b6102a061029b366004611cd1565b6105fa565b005b6102a06102b0366004611d32565b61067c565b6101f3610689565b6102e86102cb366004611d49565b6001600160a01b039081165f908152600860205260409020541690565b6040516001600160a01b039091168152602001610200565b6102a061030e366004611d49565b610696565b610326610321366004611d49565b6106a1565b60405163ffffffff9091168152602001610200565b610230610349366004611d49565b6001600160a01b03165f9081526020819052604090205490565b6102a06106ab565b6102a06106be565b6102a0610381366004611cd1565b6106ff565b610230610394366004611d49565b610714565b6103a161071e565b6040516102009796959493929190611d62565b600b546001600160a01b03166102e8565b6102306103d3366004611d32565b610760565b6103e0610784565b60405165ffffffffffff9091168152602001610200565b6101f361078d565b61023061040d366004611d49565b61079c565b61021c610420366004611cd1565b6107bc565b6102a0610433366004611e09565b6107c9565b6102a0610446366004611e5d565b610885565b610230610459366004611ec2565b6001600160a01b039182165f90815260016020908152604080832093909416825291909152205490565b600c546001600160a01b03166102e8565b6104a76104a2366004611ef3565b6109bb565b60408051825165ffffffffffff1681526020928301516001600160d01b03169281019290925201610200565b6102a06104e1366004611d49565b6109df565b6060600380546104f590611f30565b80601f016020809104026020016040519081016040528092919081815260200182805461052190611f30565b801561056c5780601f106105435761010080835404028352916020019161056c565b820191905f5260205f20905b81548152906001019060200180831161054f57829003601f168201915b5050505050905090565b5f33610583818585610a66565b60019150505b92915050565b5f3361059c858285610a78565b6105a7858585610af4565b506001949350505050565b5f6105bb610b51565b905090565b5f6105ea6105cd83610c7a565b6001600160a01b0385165f90815260096020526040902090610cc8565b6001600160d01b03169392505050565b610602610d78565b6a52b7d2dcc80cd2e40000008161061860025490565b6106229190611f7c565b111561066e578061063260025490565b610647906a52b7d2dcc80cd2e4000000611f8f565b60405163adc3cee560e01b8152600481019290925260248201526044015b60405180910390fd5b6106788282610da5565b5050565b6106863382610dd9565b50565b60606105bb610784610e0d565b336106788183610e23565b5f61058982610e94565b6106b3610d78565b6106bc5f610eb5565b565b600c5433906001600160a01b031681146106f65760405163118cdaa760e01b81526001600160a01b0382166004820152602401610665565b61068681610eb5565b61070a823383610a78565b6106788282610dd9565b5f61058982610ece565b5f6060805f805f606061072f610eeb565b610737610f18565b604080515f80825260208201909252600f60f81b9b939a50919850469750309650945092509050565b5f61077561076d83610c7a565b600a90610cc8565b6001600160d01b031692915050565b5f6105bb610f45565b6060600480546104f590611f30565b6001600160a01b0381165f90815260096020526040812061077590610f4f565b5f33610583818585610af4565b834211156107ed57604051632341d78760e11b815260048101859052602401610665565b604080517fe48329057bfd03d55e49b547132e39cffd9c1820ad7b9d4c5307691425d15adf60208201526001600160a01b0388169181019190915260608101869052608081018590525f906108669061085e9060a00160405160208183030381529060405280519060200120610f86565b858585610fb2565b90506108728187610fde565b61087c8188610e23565b50505050505050565b834211156108a95760405163313c898160e11b815260048101859052602401610665565b5f7f6e71edae12b1b97f4d1f60370fef10105fa2faae0126114a169c64845d6126c98888886108f48c6001600160a01b03165f90815260076020526040902080546001810190915590565b6040805160208101969096526001600160a01b0394851690860152929091166060840152608083015260a082015260c0810186905260e0016040516020818303038152906040528051906020012090505f61094e82610f86565b90505f61095d82878787610fb2565b9050896001600160a01b0316816001600160a01b0316146109a4576040516325c0072360e11b81526001600160a01b0380831660048301528b166024820152604401610665565b6109af8a8a8a610a66565b50505050505050505050565b604080518082019091525f80825260208201526109d88383611030565b9392505050565b6109e7610d78565b600c80546001600160a01b0383166001600160a01b03199091168117909155610a18600b546001600160a01b031690565b6001600160a01b03167f38d16b8cac22d99fc7c124b9cd0de2d3fa1faef420bfe791d8c362d765e2270060405160405180910390a350565b5f6109d88284611fa2565b5f6109d88284611fc9565b610a738383836001611064565b505050565b6001600160a01b038381165f908152600160209081526040808320938616835292905220545f19811015610aee5781811015610ae057604051637dc7a0d960e11b81526001600160a01b03841660048201526024810182905260448101839052606401610665565b610aee84848484035f611064565b50505050565b6001600160a01b038316610b1d57604051634b637e8f60e11b81525f6004820152602401610665565b6001600160a01b038216610b465760405163ec442f0560e01b81525f6004820152602401610665565b610a73838383611136565b5f306001600160a01b037f000000000000000000000000000000000000000000000000000000000000000016148015610ba957507f000000000000000000000000000000000000000000000000000000000000000046145b15610bd357507f000000000000000000000000000000000000000000000000000000000000000090565b6105bb604080517f8b73c3c69bb8fe3d512ecc4cf759cc79239f7b179b0ffacaa9a75d522b39400f60208201527f0000000000000000000000000000000000000000000000000000000000000000918101919091527f000000000000000000000000000000000000000000000000000000000000000060608201524660808201523060a08201525f9060c00160405160208183030381529060405280519060200120905090565b5f80610c84610784565b90508065ffffffffffff168310610cbf57604051637669fc0f60e11b81526004810184905265ffffffffffff82166024820152604401610665565b6109d883611141565b81545f9081816005811115610d24575f610ce184611177565b610ceb9085611f8f565b5f8881526020902090915081015465ffffffffffff9081169087161015610d1457809150610d22565b610d1f816001611f7c565b92505b505b5f610d31878785856112cf565b90508015610d6b57610d5587610d48600184611f8f565b5f91825260209091200190565b54600160301b90046001600160d01b0316610d6d565b5f5b979650505050505050565b600b546001600160a01b031633146106bc5760405163118cdaa760e01b8152336004820152602401610665565b6001600160a01b038216610dce5760405163ec442f0560e01b81525f6004820152602401610665565b6106785f8383611136565b6001600160a01b038216610e0257604051634b637e8f60e11b81525f6004820152602401610665565b610678825f83611136565b6060610589610e1e8363ffffffff16565b611325565b6001600160a01b038281165f8181526008602052604080822080548686166001600160a01b0319821681179092559151919094169392849290917f3134e8a2e6d97e929a7e54011ea5485d7d196dd5f0ba4d4ef95803e8e3fc257f9190a4610a738183610e8f86611397565b6113b4565b6001600160a01b0381165f908152600960205260408120546105899061151d565b600c80546001600160a01b03191690556106868161154d565b6001600160a01b0381165f90815260076020526040812054610589565b60606105bb7f0000000000000000000000000000000000000000000000000000000000000000600561159e565b60606105bb7f0000000000000000000000000000000000000000000000000000000000000000600661159e565b5f6105bb43611141565b80545f908015610f7e57610f6883610d48600184611f8f565b54600160301b90046001600160d01b03166109d8565b5f9392505050565b5f610589610f92610b51565b8360405161190160f01b8152600281019290925260228201526042902090565b5f805f80610fc288888888611647565b925092509250610fd2828261170f565b50909695505050505050565b6001600160a01b0382165f908152600760205260409020805460018101909155818114610a73576040516301d4b62360e61b81526001600160a01b038416600482015260248101829052604401610665565b604080518082019091525f80825260208201526001600160a01b0383165f9081526009602052604090206109d890836117c7565b6001600160a01b03841661108d5760405163e602df0560e01b81525f6004820152602401610665565b6001600160a01b0383166110b657604051634a1406b160e11b81525f6004820152602401610665565b6001600160a01b038085165f9081526001602090815260408083209387168352929052208290558015610aee57826001600160a01b0316846001600160a01b03167f8c5be1e5ebec7d5bd14f71427d1e84f3dd0314c0f7b2291e5b200ac8c7c3b9258460405161112891815260200190565b60405180910390a350505050565b610a73838383611834565b5f65ffffffffffff821115611173576040516306dfcc6560e41b81526030600482015260248101839052604401610665565b5090565b5f60018211611184575090565b816001600160801b821061119d5760809190911c9060401b5b6801000000000000000082106111b85760409190911c9060201b5b64010000000082106111cf5760209190911c9060101b5b6201000082106111e45760109190911c9060081b5b61010082106111f85760089190911c9060041b5b6010821061120b5760049190911c9060021b5b600482106112175760011b5b600302600190811c9081858161122f5761122f611fe9565b048201901c9050600181858161124757611247611fe9565b048201901c9050600181858161125f5761125f611fe9565b048201901c9050600181858161127757611277611fe9565b048201901c9050600181858161128f5761128f611fe9565b048201901c905060018185816112a7576112a7611fe9565b048201901c90506112c68185816112c0576112c0611fe9565b04821190565b90039392505050565b5f5b8183101561131d575f85815260209020838316600285851804019081015465ffffffffffff8681169116111561130957809250611317565b611314816001611f7c565b93505b506112d1565b509392505050565b606061132f610f45565b65ffffffffffff168265ffffffffffff161461135e576040516301bfc1c560e61b815260040160405180910390fd5b505060408051808201909152601d81527f6d6f64653d626c6f636b6e756d6265722666726f6d3d64656661756c74000000602082015290565b6001600160a01b0381165f90815260208190526040812054610589565b816001600160a01b0316836001600160a01b0316141580156113d557505f81115b15610a73576001600160a01b0383161561147c576001600160a01b0383165f908152600960205260408120819061141790610a5b6114128661189a565b6118cd565b6001600160d01b031691506001600160d01b03169150846001600160a01b03167fdec2bacdd2f05b59de34da9b523dff8be42e5e38e818c82fdb0bae774387a7248383604051611471929190918252602082015260400190565b60405180910390a250505b6001600160a01b03821615610a73576001600160a01b0382165f90815260096020526040812081906114b490610a506114128661189a565b6001600160d01b031691506001600160d01b03169150836001600160a01b03167fdec2bacdd2f05b59de34da9b523dff8be42e5e38e818c82fdb0bae774387a724838360405161150e929190918252602082015260400190565b60405180910390a25050505050565b5f63ffffffff821115611173576040516306dfcc6560e41b81526020600482015260248101839052604401610665565b600b80546001600160a01b038381166001600160a01b0319831681179093556040519116919082907f8be0079c531659141344cd1fd0a4f28419497f9722a3daafe3b4186f6b6457e0905f90a35050565b606060ff83146115b8576115b183611905565b9050610589565b8180546115c490611f30565b80601f01602080910402602001604051908101604052809291908181526020018280546115f090611f30565b801561163b5780601f106116125761010080835404028352916020019161163b565b820191905f5260205f20905b81548152906001019060200180831161161e57829003601f168201915b50505050509050610589565b5f80807f7fffffffffffffffffffffffffffffff5d576e7357a4501ddfe92f46681b20a084111561168057505f91506003905082611705565b604080515f808252602082018084528a905260ff891692820192909252606081018790526080810186905260019060a0016020604051602081039080840390855afa1580156116d1573d5f803e3d5ffd5b5050604051601f1901519150506001600160a01b0381166116fc57505f925060019150829050611705565b92505f91508190505b9450945094915050565b5f82600381111561172257611722611ffd565b0361172b575050565b600182600381111561173f5761173f611ffd565b0361175d5760405163f645eedf60e01b815260040160405180910390fd5b600282600381111561177157611771611ffd565b036117925760405163fce698f760e01b815260048101829052602401610665565b60038260038111156117a6576117a6611ffd565b03610678576040516335e2f38360e21b815260048101829052602401610665565b604080518082019091525f8082526020820152825f018263ffffffff16815481106117f4576117f4612011565b5f9182526020918290206040805180820190915291015465ffffffffffff81168252600160301b90046001600160d01b0316918101919091529392505050565b61183f838383611942565b6001600160a01b03831661188f575f61185760025490565b90506001600160d01b038082111561188c57604051630e58ae9360e11b81526004810183905260248101829052604401610665565b50505b610a73838383611a68565b5f6001600160d01b03821115611173576040516306dfcc6560e41b815260d0600482015260248101839052604401610665565b5f806118f86118da610784565b6118f06118e688610f4f565b868863ffffffff16565b879190611add565b915091505b935093915050565b60605f61191183611aea565b6040805160208082528183019092529192505f91906020820181803683375050509182525060208101929092525090565b6001600160a01b03831661196c578060025f8282546119619190611f7c565b909155506119dc9050565b6001600160a01b0383165f90815260208190526040902054818110156119be5760405163391434e360e21b81526001600160a01b03851660048201526024810182905260448101839052606401610665565b6001600160a01b0384165f9081526020819052604090209082900390555b6001600160a01b0382166119f857600280548290039055611a16565b6001600160a01b0382165f9081526020819052604090208054820190555b816001600160a01b0316836001600160a01b03167fddf252ad1be2c89b69c2b068fc378daa952ba7f163c4a11628f55a4df523b3ef83604051611a5b91815260200190565b60405180910390a3505050565b6001600160a01b038316611a8a57611a87600a610a506114128461189a565b50505b6001600160a01b038216611aac57611aa9600a610a5b6114128461189a565b50505b6001600160a01b038381165f90815260086020526040808220548584168352912054610a73929182169116836113b4565b5f806118f8858585611b11565b5f60ff8216601f81111561058957604051632cd44ac360e21b815260040160405180910390fd5b82545f9081908015611c07575f611b2d87610d48600185611f8f565b805490915065ffffffffffff80821691600160301b90046001600160d01b0316908816821115611b7057604051632520601d60e01b815260040160405180910390fd5b8765ffffffffffff168265ffffffffffff1603611ba957825465ffffffffffff16600160301b6001600160d01b03891602178355611bf9565b6040805180820190915265ffffffffffff808a1682526001600160d01b03808a1660208085019182528d54600181018f555f8f81529190912094519151909216600160301b029216919091179101555b94508593506118fd92505050565b50506040805180820190915265ffffffffffff80851682526001600160d01b0380851660208085019182528854600181018a555f8a815291822095519251909316600160301b0291909316179201919091559050816118fd565b5f81518084525f5b81811015611c8557602081850181015186830182015201611c69565b505f602082860101526020601f19601f83011685010191505092915050565b602081525f6109d86020830184611c61565b80356001600160a01b0381168114611ccc575f80fd5b919050565b5f8060408385031215611ce2575f80fd5b611ceb83611cb6565b946020939093013593505050565b5f805f60608486031215611d0b575f80fd5b611d1484611cb6565b9250611d2260208501611cb6565b9150604084013590509250925092565b5f60208284031215611d42575f80fd5b5035919050565b5f60208284031215611d59575f80fd5b6109d882611cb6565b60ff60f81b881681525f602060e06020840152611d8260e084018a611c61565b8381036040850152611d94818a611c61565b606085018990526001600160a01b038816608086015260a0850187905284810360c0860152855180825260208088019350909101905f5b81811015611de757835183529284019291840191600101611dcb565b50909c9b505050505050505050505050565b803560ff81168114611ccc575f80fd5b5f805f805f8060c08789031215611e1e575f80fd5b611e2787611cb6565b95506020870135945060408701359350611e4360608801611df9565b92506080870135915060a087013590509295509295509295565b5f805f805f805f60e0888a031215611e73575f80fd5b611e7c88611cb6565b9650611e8a60208901611cb6565b95506040880135945060608801359350611ea660808901611df9565b925060a0880135915060c0880135905092959891949750929550565b5f8060408385031215611ed3575f80fd5b611edc83611cb6565b9150611eea60208401611cb6565b90509250929050565b5f8060408385031215611f04575f80fd5b611f0d83611cb6565b9150602083013563ffffffff81168114611f25575f80fd5b809150509250929050565b600181811c90821680611f4457607f821691505b602082108103611f6257634e487b7160e01b5f52602260045260245ffd5b50919050565b634e487b7160e01b5f52601160045260245ffd5b8082018082111561058957610589611f68565b8181038181111561058957610589611f68565b6001600160d01b03818116838216019080821115611fc257611fc2611f68565b5092915050565b6001600160d01b03828116828216039080821115611fc257611fc2611f68565b634e487b7160e01b5f52601260045260245ffd5b634e487b7160e01b5f52602160045260245ffd5b634e487b7160e01b5f52603260045260245ffdfea264697066735822122035911437065a7ddec105864fba52b902d565d67ea702e22bacb6b30cba472aae64736f6c63430008180033dec2bacdd2f05b59de34da9b523dff8be42e5e38e818c82fdb0bae774387a724","linkReferences":{}},"methodIdentifiers":{"CLOCK_MODE()":"4bf5d7e9","DOMAIN_SEPARATOR()":"3644e515","MAX_SUPPLY()":"32cb6b0c","acceptOwnership()":"79ba5097","allowance(address,address)":"dd62ed3e","approve(address,uint256)":"095ea7b3","balanceOf(address)":"70a08231","burn(uint256)":"42966c68","burnFrom(address,uint256)":"79cc6790","checkpoints(address,uint32)":"f1127ed8","clock()":"91ddadf4","decimals()":"313ce567","delegate(address)":"5c19a95c","delegateBySig(address,uint256,uint256,uint8,bytes32,bytes32)":"c3cda520","delegates(address)":"587cde1e","eip712Domain()":"84b0196e","getPastTotalSupply(uint256)":"8e539e8c","getPastVotes(address,uint256)":"3a46b1a8","getVotes(address)":"9ab24eb0","mint(address,uint256)":"40c10f19","name()":"06fdde03","nonces(address)":"7ecebe00","numCheckpoints(address)":"6fcfff45","owner()":"8da5cb5b","pendingOwner()":"e30c3978","permit(address,address,uint256,uint256,uint8,bytes32,bytes32)":"d505accf","renounceOwnership()":"715018a6","symbol()":"95d89b41","totalSupply()":"18160ddd","transfer(address,uint256)":"a9059cbb","transferFrom(address,address,uint256)":"23b872dd","transferOwnership(address)":"f2fde38b"},"id":64}